:020000040800F2
:10000000000002206D99000895230008972300083E
:10001000992300089B2300089D230008000000008E
:100020000000000000000000000000009F23000806
:10003000A123000800000000A3230008A523000856
:10004000BD990008BD990008BD990008BD99000838
:10005000BD990008BD990008BD990008BD99000828
:10006000BD990008BD990008BD990008AD2300089E
:10007000AF230008BD990008BD990008BD9900088C
:10008000BD990008BD990008BD990008BD990008F8
:10009000B1230008BD990008BD990008C1230008DC
:1000A000BD990008BD990008BD990008BD990008D8
:1000B000BD990008BD990008BD990008BD990008C8
:1000C000BD990008BD990008BD990008BD990008B8
:1000D000BD990008BD990008BD990008BD990008A8
:1000E000D9230008BD990008BD990008BD990008F2
:1000F000BD990008BD990008BD990008BD99000888
:10010000BD990008BD990008BD990008BD99000877
:10011000BD990008BD990008F5230008BD990008A5
:10012000BD990008BD990008BD990008BD99000857
:10013000BD990008BD990008BD990008BD99000847
:10014000BD990008BD990008BD990008BD99000837
:10015000BD990008BD990008BD990008BD99000827
:10016000BD990008BD990008BD990008BD99000817
:10017000BD990008BD990008BD990008BD99000807
:10018000BD990008BD990008BD990008BD990008F7
:10019000BD99000800000000BD990008BD99000845
:1001A000BD990008BD990008BD990008BD990008D7
:1001B000BD990008BD990008BD990008BD990008C7
:1001C000BD990008BD990008BD990008BD990008B7
:0801D000BD990008BD9900086B
:1001D80010B5054C237833B9044B13B10448AFF379
:1001E80000800123237010BDE801002000000000FA
:1001F800B0A2000808B5034B1BB103490348AFF38D
:10020800008008BD00000000EC010020B0A200083A
:1002180053B94AB9002908BF00281CBF4FF0FF3165
:100228004FF0FF3000F074B9ADF1080C6DE904CE61
:1002380000F006F8DDF804E0DDE9022304B07047B9
:100248002DE9F047089D04468E46002B4DD18A4281
:10025800944669D9B2FA82F252B101FA02F3C2F1B4
:10026800200120FA01F10CFA02FC41EA030E944045
:100278004FEA1C48210CBEFBF8F61FFA8CF708FB66
:1002880016E341EA034306FB07F199420AD91CEB3E
:10029800030306F1FF3080F01F81994240F21C8170
:1002A800023E63445B1AA4B2B3FBF8F008FB1033B8
:1002B80044EA034400FB07F7A7420AD91CEB0404ED
:1002C80000F1FF3380F00A81A74240F207816444BD
:1002D800023840EA0640E41B00261DB1D440002342
:1002E800C5E900433146BDE8F0878B4209D9002DA6
:1002F80000F0EF800026C5E9000130463146BDE830
:10030800F087B3FA83F6002E4AD18B4202D3824299
:1003180000F2F980841A61EB030301209E46002D48
:10032800E0D0C5E9004EDDE702B9FFDEB2FA82F29D
:10033800002A40F09280A1EB0C014FEA1C471FFAFB
:100348008CFE0126200CB1FBF7F307FB131140EAE2
:1003580001410EFB03F0884208D91CEB010103F1AF
:10036800FF3802D2884200F2CB804346091AA4B271
:10037800B1FBF7F007FB101144EA01440EFB00FE45
:10038800A64508D91CEB040400F1FF3102D2A645AA
:1003980000F2BB800846A4EB0E0440EA03409CE749
:1003A800C6F12007B34022FA07FC4CEA030C20FAF6
:1003B80007F401FA06F31C43F9404FEA1C4900FA16
:1003C80006F3B1FBF9F8200C1FFA8CFE09FB181193
:1003D80040EA014108FB0EF0884202FA06F20BD906
:1003E8001CEB010108F1FF3A80F08880884240F256
:1003F8008580A8F102086144091AA4B2B1FBF9F09A
:1004080009FB101144EA014100FB0EFE8E4508D994
:100418001CEB010100F1FF346CD28E456AD9023819
:10042800614440EA0840A0FB0294A1EB0E01A142FE
:10043800C846A64656D353D05DB1B3EB080261EB6C
:100448000E0101FA07F722FA06F3F1401F43C5E946
:10045800007100263146BDE8F087C2F12003D8407C
:100468000CFA02FC21FA03F3914001434FEA1C47BE
:100478001FFA8CFEB3FBF7F007FB10360B0C43EAB0
:10048800064300FB0EF69E4204FA02F408D91CEB60
:10049800030300F1FF382FD29E422DD9023863445E
:1004A8009B1B89B2B3FBF7F607FB163341EA0341FE
:1004B80006FB0EF38B4208D91CEB010106F1FF384D
:1004C80016D28B4214D9023E6144C91A46EA004644
:1004D80038E72E46284605E70646E3E61846F8E6D6
:1004E8004B45A9D2B9EB020864EB0C0E0138A3E71F
:1004F8004646EAE7204694E74046D1E7D0467BE700
:10050800023B614432E7304609E76444023842E777
:10051800704700BF00B583B0019201231A4602F06C
:1005280075FB012101A802F029FB03B05DF804FB6B
:1005380010B582B0BDF81040009402F057FC0020BE
:1005480002B010BD72B6FEE700B595B038220021A2
:1005580006A809F05BFA002001900290039004902D
:10056800059005F0E1FC212306934FF4A02307939F
:1005780001230C9302230D9303220E920F9355220D
:100588001092119306221292139306A804F048FEC3
:1005980080B90F2301930323029300230393049349
:1005A800059304210DEB010005F0F2F820B915B010
:1005B8005DF804FBFFF7C6FFFFF7C4FF10B504F0B2
:1005C800CDFDFFF7C1FF00F067F800F0DDFD00F09A
:1005D800D9FA00F0B9FE00F025FF01F019FC01F08E
:1005E8004BFC01F07DFC01F067FD00F0D5FF01F048
:1005F8005DF801F0CFF901F043FA01F061FB00F07A
:1006080005FB00F00BFD00F037FD00F0E9FD00F000
:10061800D9FE01F0DDFA01F083FD00F047FB01F09F
:100628001BFF00F05FFA00F0CDFC01F097F802F034
:100638002BFA02F08FF902F04BFA124801F090FE03
:1006480002F012FC002002F0ADFB0446012002F08B
:10065800A9FB034622460C490C4802F017FC0C483B
:1006680002F048FC4FF6FF7002F056FC002002F042
:1006780059FC0849012002F05BFC012002F066FCED
:10068800FEE700BF900200201D05000804020020BC
:1006980020A30008390500082DE9F04F91B0002487
:1006A8000D940E940F940794089409940A940B944B
:1006B8000C94AB4BDA6C42F01002DA64DA6C02F09C
:1006C80010020692069ADA6C42F00402DA64DA6CD6
:1006D80002F004020592059ADA6C42F02002DA640C
:1006E800DA6C02F020020492049ADA6C42F00102F9
:1006F800DA64DA6C02F001020392039ADA6C42F0CF
:100708000202DA64DA6C02F002020292029ADA6CED
:1007180042F00802DA64DA6C02F008020192019AE7
:10072800DA6C42F04002DA64DB6C03F040030093B9
:10073800009B8C4E4FF00809C6F828901023B3622E
:100748002023B362884F0125BD624FF00208C7F825
:1007580028800423BB62C7F82890B3624FF4006373
:10076800B362DFF814A28023CAF828307F4BC3F89D
:100778002890A3F5006320229A6240229A62DFF84B
:10078800FCB1CBF82850CBF818804FF400530793EE
:100798000B9507A9384602F0BFFC4FF400430793B6
:1007A80008940B9507A9384602F0B6FCCDF81C90C2
:1007B800089509940A940B9407A9304602F0ACFCFA
:1007C80010230793089509940A940B9407A93046B7
:1007D80002F0A2FC20230793089509940A940B942D
:1007E80007A9304602F098FC0795089509940A94E1
:1007F8000B9407A9384602F08FFCCDF81C800895A9
:1008080009940A940B9407A9384602F085FC04233E
:100818000793089509940A940B9407A9384602F09F
:100828007BFCCDF81C90089509940A940B9407A9B1
:10083800384602F071FC04230793089503230993B3
:100848000A940B9407A9304602F066FC4FF4006343
:100858000793089509940A940B9407A9304602F067
:100868005BFC079508940B9507A9504602F054FCC9
:10087800CDF81C8008940B9507A9504602F04CFC53
:100888004023079308940B9507A9504602F044FCAF
:1008980080230793089509940A940B9407A9504656
:1008A80002F03AFC4FF48073079308940B9507A95C
:1008B800504602F031FCCDF81C90089509940A9432
:1008C8000B9407A9294802F027FC202307930895D1
:1008D80009940A940B9407A9254802F01DFC4023AB
:1008E8000793089509940A940B9407A9204802F0E5
:1008F80013FC0795089509940A940B9407A9584680
:1009080002F00AFCCDF81C800895CDF824800A94E2
:100918000B9507A9584602F0FFFB164B5A6922F4BB
:1009280070624FF4706393FAA3F3002B00F0BF805A
:10093800B3FA83F303F01F03022101FA03F313430D
:100948000C4A5361D26822F470624FF4706393FAD0
:10095800A3F3002B00F0AD80B3FA83F310E000BFDF
:10096800001002400014004800080048000C00482D
:10097800000400480000014000180048001000482A
:1009880003F01F03032101FA03F31343504AD36012
:100998004FF480440D9401278DF83C7000268DF8A3
:1009A8003D6002258DF83E500DA802F0E5FA40237F
:1009B8000D938DF83C708DF83D608DF83E500DA874
:1009C80002F0DAFA434BDB6894FAA4F4002C72D0F4
:1009D800B4FA84F46400032202FA04F423EA040457
:1009E8004FF4804393FAA3F3002B66D0B3FA83F352
:1009F8005B00012202FA03F32343364AD360364BE5
:100A0800DA68402393FAA3F3002B58D0B3FA83F3A0
:100A18005B00032101FA03F322EA0302402393FA5D
:100A2800A3F3002B4DD0B3FA83F35B00012101FA45
:100A380003F31343284AD360264B1A684FF48043C4
:100A480093FAA3F3002B3ED0B3FA83F35B000321A0
:100A580001FA03F322EA03034FF4804292FAA2F266
:100A68001C4A13601C4B1A68402393FAA3F363B320
:100A7800B3FA83F35B00032101FA03F322EA0303C9
:100A8800402292FAA2F2144A13601449CB68144B1C
:100A9800002283F817234FF400001860C96883F810
:100AA80028234FF480725A6011B0BDE8F08F2023DC
:100AB80040E7202364E720248CE7202398E72023BD
:100AC800A6E72023B1E72023C0E72023D2E700BF11
:100AD8000000014000080048000C004800ED00E05C
:100AE80000E100E010B58CB0002409940A940B943E
:100AF8002022214601A808F089FF20484FF0A04392
:100B080003604FF4403343608460C460046144610F
:100B180004238361047744770123036280F8244027
:100B2800C462046380F83840C46380F8404005F02C
:100B3800F5FAC8B90023099309A9104805F0DEFEA3
:100B4800A8B90F4B019306230293002303937F2236
:100B580004920422059206930DEB0201074805F062
:100B680031FC38B90CB010BDFFF7ECFCE2E7FFF739
:100B7800E9FCE6E7FFF7E6FCF4E700BFC002002067
:100B88000400600800B589B020220021684608F0FA
:100B98003DFF1B481B4B03604FF440334360002369
:100BA8008360C360036143610422826103774377F2
:100BB8000122026280F82430C362036380F838306F
:100BC800C36380F8403005F0A9FA90B90E4B009342
:100BD80006230193002302937F22039204220492A6
:100BE80005936946064805F0EDFB28B909B05DF89C
:100BF80004FBFFF7A7FCE9E7FFF7A4FCF6E700BF53
:100C08002C030020000100502000F01410B58CB017
:100C1800002409940A940B942022214601A808F084
:100C2800F5FE1F481F4B03604FF440334360846058
:100C3800C460046144610423836104774477012319
:100C4800036280F82440C462046380F83840C463B7
:100C580080F8404005F062FAC8B90023099309A951
:100C68000F4805F04BFEA8B90F4B019306230293DA
:100C7800002303937F2204920422059206930DEB2E
:100C88000201074805F09EFB38B90CB010BDFFF70C
:100C980059FCE2E7FFF756FCE6E7FFF753FCF4E7F9
:100CA80098030020000400500001802100B589B09D
:100CB80020220021684608F0A9FE2348234B036040
:100CC8004FF44033436000238360C3600361012213
:100CD800426104218161037743770221016280F830
:100CE80024208262C362036380F838304FF4805254
:100CF800C26380F8403005F011FAE0B9144B009354
:100D080006230193052302937F230393042304936B
:100D18000023059369460C4805F054FB70B90D4B48
:100D280000930C2301936946074805F04BFB40B933
:100D380009B05DF804FBFFF705FCDFE7FFF702FCED
:100D4800EDE7FFF7FFFBF3E7040400200005005080
:100D58001000C0102000F01430B5A7B004460021E0
:100D68002191229123912491259154220CA808F0D5
:100D78004DFE2368B3F1A04F0CD0884A93423DD072
:100D8800874A934200F0A280864A934200F0D280BC
:100D980027B030BD4FF400430C934FF000531D9320
:100DA8000CA804F01BFED8B97F4A136801331360FE
:100DB800012B18D07D4BDA6C42F00102DA64DB6C4F
:100DC80003F001030293029B0F2321930323229331
:100DD8000023239321A94FF0904004F0BBFFD7E7ED
:100DE800FFF7B0FBE0E7714BDA6C42F40052DA64CB
:100DF800DB6C03F400530193019BDBE74FF40043E2
:100E08000C934FF000531D930CA804F0E7FD002845
:100E18004ED1654A136801331360012B4BD0634BE5
:100E2800DA6C42F02002DA64DA6C02F020020492F2
:100E3800049ADA6C42F00102DA64DA6C02F0010218
:100E48000592059ADA6C42F00402DA64DA6C02F070
:100E580004020692069ADA6C42F00202DA64DB6C4B
:100E680003F002030793079B02232193032522958E
:100E78000024239421A94E4804F06CFF20232193D9
:100E88002295239421A94FF0904004F063FF30236A
:100E980021932295239421A9464804F05BFF04235B
:100EA80021932295239421A9434804F053FF6FE727
:100EB800FFF748FBADE73D4BDA6C42F40052DA64C9
:100EC800DB6C03F400530393039BA8E74FF48033D0
:100ED8000C934FF000431E930CA804F07FFDD8B983
:100EE800364A136801331360012B18D02F4BDA6C84
:100EF80042F00802DA64DB6C03F008030993099BEB
:100F08004FF460532193032322930023239321A9B1
:100F18002B4804F01FFF3BE7FFF714FBE0E7234BE8
:100F2800DA6C42F48042DA64DB6C03F480430893A1
:100F3800089BDBE74FF480330C934FF000431E937C
:100F48000CA804F04BFDD8B91C4A13680133136090
:100F5800012B18D0154BDA6C42F00202DA64DB6C14
:100F680003F002030B930B9B4FF44043219303239D
:100F780022930023239321A90F4804F0EBFE07E7EF
:100F8800FFF7E0FAE0E7094BDA6C42F48042DA64F2
:100F9800DB6C03F480430A930A9BDBE700010050F3
:100FA8000004005000050050B80200200010024064
:100FB800001400480008004800040048BC02002053
:100FC800000C004808B50848084B0360002303716B
:100FD8004371436183610123036205F079FD00B920
:100FE80008BDFFF7AFFAFBE77004002000300240AD
:100FF8000268094B9A4200D0704782B0A3F50053AB
:101008009A6C42F480529A649B6C03F48053019367
:10101800019B02B0704700BF0030024000B58DB0A0
:1010280030220021684608F0F1FC1148114B03609A
:1010380005F0C5FDA8B90223009300228DF804200D
:101048008DF80520029203920492059201230693DB
:1010580007926946064805F0FDFD28B90DB05DF810
:1010680004FBFFF76FFAE6E7FFF76CFAF6E700BF55
:10107800940400200008005000B58DB030220021F3
:10108800684608F0C3FC1148114B036005F097FD52
:10109800A8B90223009300228DF804208DF80520BA
:1010A80002920392049205920123069307926946DD
:1010B800064805F0CFFD28B90DB05DF804FBFFF731
:1010C80041FAE6E7FFF73EFAF6E700BFA80400207A
:1010D800000C005000B58BB00023059306930793CE
:1010E800089309930368254A934205D0244A9342FA
:1010F80027D00BB05DF804FB224BDA6C42F4803247
:10110800DA64DA6C02F480320192019ADA6C42F005
:101118000102DA64DB6C03F001030293029B1023E3
:1011280005930323069305A94FF0904004F012FE9F
:1011380000220F21362004F097FF362004F0CCFF60
:10114800D7E7104BDA6C42F40032DA64DA6C02F456
:1011580000320392039ADA6C42F00102DA64DB6C23
:1011680003F001030493049B402305930323069390
:1011780005A94FF0904004F0EDFDBAE700080050D3
:10118800000C00500010024082B0124B9A6C42F0E2
:1011980004029A649A6C02F004020092009A9A6C13
:1011A80042F001029A649B6C03F001030193019BD6
:1011B8000949CB68094B002283F80B234FF40060E0
:1011C8001860C96883F80C234FF480521A6002B083
:1011D800704700BF0010024000ED00E000E100E0B1
:1011E80008B50F480F4B0360002343608360C3605A
:1011F8000374437483740122426182610221C161D4
:10120800016242628262C262026343638363C363B0
:1012180005F066FE00B908BDFFF794F9FBE700BFCB
:10122800BC0400200068004010B59CB004460021B2
:101238001791189119911A911B91542202A808F03C
:10124800E5FB2268194B9A4201D01CB010BD4FF43F
:10125800805302934FF00073109302A804F0BEFB72
:1012680008BB134B9A6D42F000729A659A6D02F0B2
:1012780000720092009ADA6C42F00202DA64DB6CC7
:1012880003F002030193019B4FF440531793022389
:101298001893002319931A9309231B9317A9054838
:1012A80004F058FDD1E7FFF74DF9DAE70068004090
:1012B8000010024000040048F0B587B000230193F5
:1012C80002930393049305931A4B1B680BB107B061
:1012D800F0BD184B01221A60174B1A6D42F001023B
:1012E8001A651B6D03F001030093009B4FF6807392
:1012F800019302260296032504950C24059401A95E
:101308000E4804F027FD4CF2B373019302960027B0
:1013180003970495059401A9094804F01BFD2023AF
:101328000193029603970495059401A9054804F0D2
:1013380011FDCCE7200500200010024000100048F5
:10134800000C00480018004810B588B02022002181
:10135800684608F05BFB18484FF02043036003F52C
:101368008273436000228260C26002611021416181
:101378008261C26102624FF4805343628262C26238
:10138800026342638263C2634264026480F8482055
:10139800012300930F24019402930393049305916E
:1013A80011230693694605F04DFF08B908B010BD32
:1013B800FFF7C8F8FAE700BF2405002008B5FFF7D3
:1013C8007BFF08BD08B51548154B0360A3F175638D
:1013D800A3F57A23A3F60543436000238360012223
:1013E800C260036143618361C361036205F056FF14
:1013F80050B90021094805F0AFFF40B9002107485E
:1014080005F0D8FF30B908BDFFF79CF8F1E7FFF702
:1014180099F8F3E7FFF796F8F5E700BF7C05002099
:101428000054004008B51448144B0360A3F17563D9
:10143800A3F57B23053B4360002383600122C26040
:10144800036143618361C361036205F027FF50B9FB
:101458000021094805F080FF40B90021064805F041
:10146800A9FF30B908BDFFF76DF8F1E7FFF76AF893
:10147800F3E7FFF767F8F5E7C805002000580040D4
:10148800F0B5A1B0044600211B911C911D911E913D
:101498001F91542206A808F0B9FA23683A4A9342E1
:1014A80004D03A4A934241D021B0F0BD402306937C
:1014B80006A804F093FA002835D1354CE36C43F0C4
:1014C8000103E364E36C03F001030193019BE36C04
:1014D80043F00203E364E36C03F002030293029B0C
:1014E8004FF400431B9312271C9700251D951E954A
:1014F80004261F961BA94FF0904004F02BFC802374
:101508001B931C971D951E951F961BA9214804F037
:1015180021FCA36D43F40013A365A36D03F400132A
:101528000393039BC0E7FFF70DF8C6E780230693F4
:1015380006A804F053FA18BB154CE36C43F00103FA
:10154800E364E36C03F001030493049B4FF44073DA
:101558001B9312231C9301231D9300231E93042322
:101568001F931BA94FF0904004F0F4FBA36D43F4C4
:101578008003A365A36D03F480030593059B93E79C
:10158800FEF7E0FFD8E700BF0054004000580040D5
:10159800001002400004004808B50A480A4B0360DE
:1015A800FF234360012282600023C360026143611C
:1015B8008361C361036205F055FF00B908BDFEF7FA
:1015C800C1FFFBE714060020001000A070B59EB014
:1015D8000446002119911A911B911C911D915422C6
:1015E80004A808F013FA22682C4B9A4201D01EB0C6
:1015F80070BD4FF48023049304A804F0EFF9002889
:1016080048D1274B1A6D42F480721A651A6D02F49C
:1016180080720092009ADA6C42F00102DA64DA6CA5
:1016280002F001020192019ADA6C42F00202DA64D5
:10163800DA6C02F002020292029ADA6C42F020029C
:10164800DA64DB6C03F020030393039B8023199374
:1016580002261A9600241B941C940A251D9519A984
:101668004FF0904004F076FB40F6034319931A9626
:101678001B941C941D9519A90A4804F06BFB402380
:1016880019931A961B941C941D9519A9064804F0E1
:1016980061FBACE7FEF756FFB3E700BF001000A000
:1016A80000100240000400480014004808B5104823
:1016B800104B03604FF482734360002383604FF440
:1016C800E062C260036143614FF4007282612822C4
:1016D800C2610362436283620722C2620363436397
:1016E80005F018FF00B908BDFEF72CFFFBE700BFA7
:1016F800600600200030014000B589B00023039344
:1017080004930593069307930268124B9A4202D0FA
:1017180009B05DF804FB03F560431A6E42F4805289
:101728001A661A6E02F480520192019ADA6C42F03B
:101738004002DA64DB6C03F040030293029B1C2333
:101748000393022304930523079303A9024804F093
:1017580001FBDDE7003001400018004810B586B0F5
:1017680000230193029303930493059303F18043A9
:1017780003F504339A6D42F010029A659B6D03F0ED
:1017880010030093009B1E4BDA68C2F30222C2F1D9
:101798000703042B28BF04231946131D062B2CD935
:1017A800033A4FF0FF338B40DB4303F00F039340C2
:1017B8001B01DBB2134A82F836334FF480035360BF
:1017C800AA23ADF80430002302934CF24F3303935D
:1017D8000D4C01A9204606F0DBFB236843F080038B
:1017E8002360636823F0007323F070036360A368C9
:1017F80023F08003A36006B010BD0022D1E700BF2C
:1018080000ED00E000E100E00010004084B0036853
:101818001C4A934213D01C4A93421CD01B4A934241
:1018280024D01B4A934214D11A4B1A6E42F48012E8
:101838001A661B6E03F480130393039B09E0154B90
:101848009A6D42F008029A659B6D03F008030093B5
:10185800009B04B070470F4B1A6E42F400521A6690
:101868001B6E03F400530193019BF2E7094B1A6EB8
:1018780042F480321A661B6E03F480330293029B93
:10188800E7E700BF000C0040003401400040014081
:10189800005001400010024000B58BB000230593B2
:1018A80006930793089309930368334A93420BD02E
:1018B800324A93421ED0324A934231D0314A93423F
:1018C80044D00BB05DF804FB2F4BDA6C42F02002D9
:1018D800DA64DB6C03F020030193019B4FF460731F
:1018E8000593022306930623099305A9274804F0C4
:1018F80031FAE6E7244BDA6C42F00402DA64DB6C76
:1019080003F004030293029B4FF4707305930223C0
:1019180006930423099305A91D4804F01BFAD0E790
:10192800194BDA6C42F02002DA64DB6C03F0200316
:101938000393039B4FF480630593022306930323C9
:10194800099305A9114804F005FABAE70E4BDA6CB9
:1019580042F02002DA64DB6C03F020030493049B5A
:101968004FF47043059302230693099305A907488A
:1019780004F0F0F9A5E700BF000C00400034014076
:10198800004001400050014000100240001400488F
:101998000008004800B58FB000230A930B930C93FE
:1019A8000D9307930893099300930193029303936C
:1019B8000493059306933048304A02600A22426035
:1019C800836042F21072C26003618023836106F073
:1019D8001DF800283AD14FF480530A930AA92648E3
:1019E80006F06CF9002834D1234806F03FF80028A7
:1019F80032D100230793099307A91F4806F008FA74
:101A080068BB60230093C8230193002302930493C7
:101A180004226946184806F0A7F818BB4FF4C873A3
:101A2800019308226946144806F09EF8E8B94FF475
:101A3800167301930C2269460F4806F095F8B8B959
:101A48000D48FFF729FF0FB05DF804FBFEF77AFD9C
:101A5800C1E7FEF777FDC7E7FEF774FDC9E7FEF7B4
:101A680071FDCEE7FEF76EFDD8E7FEF76BFDDEE70A
:101A7800FEF768FDE4E700BF5C070020000C0040AB
:101A880010B59CB00024189419941A941B941594BA
:101A9800169417940E940F9410941194129413940E
:101AA80014943422214601A807F0B0FF4648474B5A
:101AB8000360446084604FF6FF73C360046144614F
:101AC800846105F0A3FF002862D14FF48053189376
:101AD80018A93D4806F0F2F800285CD13A4805F00C
:101AE800C5FF00285AD1002315931693179315A9FB
:101AF800354806F08DF9002853D160230E934FF432
:101B08007A730F93002210921192129213921492E8
:101B18000EA92D4806F028F8002845D14FF4FA639D
:101B28000F9304220EA9284806F01EF800283ED17B
:101B38004FF47A630F9308220EA9234806F014F88D
:101B4800002837D14FF4FA530F930C220EA91E48E0
:101B580006F00AF8002830D100230193029303937A
:101B6800049305934FF40052069207930893099340
:101B78004FF000720A920B930C930D9301A912482F
:101B880006F09CF9E0B91048FFF786FE1CB010BDBE
:101B9800FEF7D8FC99E7FEF7D5FC9FE7FEF7D2FCE5
:101BA800A1E7FEF7CFFCA8E7FEF7CCFCB6E7FEF707
:101BB800C9FCBDE7FEF7C6FCC4E7FEF7C3FCCBE7EC
:101BC800FEF7C0FCDFE700BFA80700200034014093
:101BD80010B59CB00024189419941A941B94159469
:101BE800169417940E940F941094119412941394BD
:101BF80014943422214601A807F008FF2E482F4BE1
:101C08000360446084604FF40043C360046144612E
:101C1800846105F0FBFE00283CD14FF480531893F3
:101C280018A9254806F04AF8002836D1224805F0B8
:101C38001DFF002834D100231593179315A91E48BA
:101C480006F0E6F800282ED160230E934FF47A535D
:101C58000F93002310931193129313931493042258
:101C68000EA9154805F080FF00BB002301930293DD
:101C78000393049305934FF40052069207930D9330
:101C880001A90D4806F01AF998B90B48FFF704FEA8
:101C98001CB010BDFEF756FCBFE7FEF753FCC5E7C6
:101CA800FEF750FCC7E7FEF74DFCCDE7FEF74AFC10
:101CB800DBE7FEF747FCE8E7C406002000400140E8
:101CC80010B59CB00024189419941A941B94159478
:101CD800169417940E940F941094119412941394CC
:101CE80014943422214601A807F090FE4648474B39
:101CF8000360446084604FF47A53C36004614461B4
:101D0800846105F083FE002862D14FF48053189354
:101D180018A93D4805F0D2FF00285CD13A4805F0E3
:101D2800A5FE00285AD1002315931693179315A9D9
:101D3800354806F06DF8002853D160230E934FF410
:101D4800FA530F9300221092119212921392149246
:101D58000EA92D4805F008FF002845D142F210735E
:101D68000F9304220EA9284805F0FEFE00283ED154
:101D780042F6E0630F9308220EA9234805F0F4FE0B
:101D8800002837D143F698230F930C220EA91E483A
:101D980005F0EAFE002830D1002301930293039353
:101DA800049305934FF400520692079308930993FE
:101DB8004FF000720A920B930C930D9301A91248ED
:101DC80006F07CF8E0B91048FFF766FD1CB010BDBE
:101DD800FEF7B8FB99E7FEF7B5FB9FE7FEF7B2FB06
:101DE800A1E7FEF7AFFBA8E7FEF7ACFBB6E7FEF707
:101DF800A9FBBDE7FEF7A6FBC4E7FEF7A3FBCBE70D
:101E0800FEF7A0FBDFE700BF1007002000500140ED
:101E180008B51748174B03604FF4E13343600023BC
:101E28008360C36003610C2242618361C361036202
:101E38004362836206F0EDFB70B900210C4806F09E
:101E480060FC60B900210A4806F080FC50B90848D7
:101E580006F038FC48B908BDFEF774FBEDE7FEF75D
:101E680071FBEFE7FEF76EFBF1E7FEF76BFBF2E7BE
:101E780014090020004C004008B51748174B0360B0
:101E88004FF4E133436000238360C36003610C2295
:101E980042618361C36103624362836206F0B9FBF6
:101EA80070B900210C4806F02CFC60B900210A48E2
:101EB80006F04CFC50B9084806F004FC48B908BDC7
:101EC800FEF740FBEDE7FEF73DFBEFE7FEF73AFBD9
:101ED800F1E7FEF737FBF2E7A409002000500040C5
:101EE80070B5A6B0202200211EA807F08FFD0021A2
:101EF800189119911A911B911C911D91542203A8B4
:101F080007F084FD0123039303A803F067FD00286D
:101F180040F0C480634B1A6E42F480421A661A6E0F
:101F280002F480420292029ADA6C42F00102DA6408
:101F3800DA6C02F001020192019ADA6C42F0400276
:101F4800DA64DB6C03F040030093009B4FF480637A
:101F580018930226199600241A941B941C9407259A
:101F68001D9518A94FF0904001F0D6F84FF4007372
:101F7800189319961A941B941C941D9518A94A48ED
:101F880001F0CAF8494BD3F8002822F0FF0242F0CA
:101F98001802C3F800289A6822F4804222F010023E
:101FA8009A609A6822F440529A609A6822F0200255
:101FB8009A609A6822F040029A609A6842F0800219
:101FC8009A609A6822F440729A609A6822F4406291
:101FD8009A60D3F8042822F0FF0242F01902C3F8ED
:101FE8000428DA6922F4804222F0100242F010023A
:101FF800DA61DA6922F44052DA61DA6922F0200201
:10200800DA61DA6922F04002DA61DA6942F08002C4
:10201800DA61DA6922F44072DA61DA6922F440623C
:10202800DA611E944FF4E1331F9320942194229493
:102038000C232393249425941EA91D4806F0ACFB79
:102048001C4B53E8002F22F0604243E8002100298E
:10205800F6D153E8002F22F0606243E800210029FE
:10206800F7D1134B1A6822F000521A605A6822F40A
:1020780090425A609A6822F02A029A601A6842F0DE
:1020880001021A600A4BDB6913F4001FFAD0084BEF
:10209800DB6913F4800FF5D026B070BDFEF752FA55
:1020A80038E700BF00100240001800480000024056
:1020B800003801400838014008B51748174B03603D
:1020C8004FF4E133436000238360C36003610C2253
:1020D80042618361C36103624362836206F099FAD5
:1020E80070B900210C4806F00CFB60B900210A48C1
:1020F80006F02CFB50B9084806F0E4FA48B908BDC8
:10210800FEF720FAEDE7FEF71DFAEFE7FEF71AFAF9
:10211800F1E7FEF717FAF2E7F40700200044004061
:1021280008B51748174B03604FF4E13343600023A9
:102138008360C36003610C2242618361C3610362EF
:102148004362836206F065FA70B900210C4806F014
:10215800D8FA60B900210A4806F0F8FA50B90848D8
:1021680006F0B0FA48B908BDFEF7ECF9EDE7FEF75E
:10217800E9F9EFE7FEF7E6F9F1E7FEF7E3F9F2E749
:10218800840800200048004070B5A4B0044600212F
:102198001F91209121912291239154220AA807F09E
:1021A80035FC2368664A93420BD0664A934233D083
:1021B800654A93426FD0654A934200F0968024B0F6
:1021C80070BD08230A930AA803F008FC08BB604BFB
:1021D8009A6D42F400229A659A6D02F400220192E7
:1021E800019ADA6C42F00402DA64DB6C03F004034F
:1021F8000293029B4FF440631F9302232093002312
:1022080021932293052323931FA9524803F0A2FD8B
:10221800D5E7FEF797F9DAE710230A930AA803F03F
:10222800DDFB002834D14A4B9A6D42F480129A653E
:102238009A6D02F480120392039ADA6C42F0040257
:10224800DA64DA6C02F004020492049ADA6C42F05E
:102258000802DA64DB6C03F008030593059B4FF46E
:1022680080531F930226209600242194229405254A
:1022780023951FA9374803F06DFD04231F9320966B
:102288002194229423951FA9334803F063FD96E710
:10229800FEF758F9C7E702230A930AA803F09EFB42
:1022A80000BB2B4B9A6D42F400329A659A6D02F48A
:1022B80000320692069ADA6C42F00202DA64DB6CAB
:1022C80003F002030793079B18231F93022320930D
:1022D800002321932293072323931FA91F4803F068
:1022E80039FD6CE7FEF72EF9DBE704230A930AA809
:1022F80003F074FB08BB164B9A6D42F480229A6572
:102308009A6D02F480220892089ADA6C42F002026E
:10231800DA64DB6C03F002030993099B4FF4407302
:102328001F930223209300232193229307232393AF
:102338001FA90A4803F00EFD41E7FEF703F9DAE7A3
:10234800004C00400050004000440040004800405D
:102358000010024000080048000C00480004004833
:102368004FF44372026040F6025383604260C360D8
:102378005A2303614361044B8361C36140F6070339
:1023880003624362704700BF9190103DFEE7FEE78D
:10239800FEE7FEE7FEE770477047704708B502F0B2
:1023A800EDFE08BD7047704708B5024801F029FDE9
:1023B80008BD00BF041F0020044B5B6913F0400FE9
:1023C80000D17047014B40225A61FAE700040140EE
:1023D800054B5B6913F4804F00D17047024B4FF4F3
:1023E80080425A61F9E700BF0004014008B50A4B72
:1023F800DB6813F0010F0AD0074B1B6913F0010FBC
:1024080005D0054B6FF001021A6100F015FB034877
:1024180004F0E8FB08BD00BF001000409404002051
:1024280000B583B00B4B1A6E42F001021A661A6EA1
:1024380002F001020092009A9A6D42F080529A6569
:102448009B6D03F080530193019B03F0F3FD03B0F0
:102458005DF804FB0010024008B500220F4910483F
:1024680006F086FB70B90F490D4806F098FB60B975
:102478000D490B4807F003FA50B9094806F0A6FBC6
:1024880048B908BDFEF75EF8EDE7FEF75BF8EFE741
:10249800FEF758F8F1E7FEF755F8F2E700000020DC
:1024A800340A0020740000205400002012230B80FE
:1024B800004870472000002004230B800048704724
:1024C80034000020002393421ED200B510E00CF126
:1024D800370C01F813C000014FEA430C0CF1010C52
:1024E8004FF0000E01F80CE00133DBB2934209D241
:1024F8004FEA107CB0F1204FE9D20CF1300C01F812
:1025080013C0E8E75DF804FB7047000038B50B4BD3
:10251800D3F89005D3F89445D3F89835C01800D16E
:1025280038BD074D0822A91CFFF7CCFF042205F18E
:1025380012012046FFF7C6FFF2E700BF0070FF1F39
:102548003800002008B51A230B80FFF7DFFF014889
:1025580008BD00BF3800002008B50A4628B905495B
:10256800054806F0B0FF034808BD0249024806F0D6
:10257800AAFFF8E7040D0020C8A2000810B50A4613
:10258800034C2146034806F09EFF204610BD00BFBD
:10259800040D0020E0A2000808B50A4628B905493C
:1025A800054806F090FF034808BD0249024806F0B6
:1025B8008AFFF8E7040D0020F4A2000808B50A46CF
:1025C80028B90549054806F07EFF034808BD0249B9
:1025D800024806F078FFF8E7040D002000A3000881
:1025E80000207047002070470020704710B5014652
:1025F800044C204607F055F9204607F05BF9002007
:1026080010BD00BF340A002010B5064C0022064950
:10261800204607F03BF90549204607F042F900201B
:1026280010BD00BF340A002004170020040F00204A
:10263800032805D8DFE800F00504020501207047EB
:102648000320704708B5FDF77FFF08BD10B596B0A9
:1026580004465422002101A807F0D8F92268114B3A
:102668009A4201D016B010BD4FF40053019301A84F
:1026780003F0B4F990B90C4B9A6D42F400029A65D4
:102688009B6D03F400030093009B00221146142065
:1026980003F0EAFC142003F01FFDE3E7FDF752FF07
:1026A800E9E700BF005C00400010024008B500F5F3
:1026B8002C71D0F8F00206F09EFA08BD08B501EBBF
:1026C800810300EBC303D3F87C21D0F8F00206F0B5
:1026D800BEFA08BD08B501EB810300EBC303DA6B52
:1026E800D0F8F00206F0EFFA08BD08B5D0F8F0020D
:1026F80006F08FFB08BD10B504468368022B09D18C
:102708000121D4F8F00206F06AFBD4F8F00206F0D2
:1027180039FB10BDFDF716FFF2E7000010B50446BF
:10272800D0F8F00206F05EFBA36923B1024A1369F0
:1027380043F00603136110BD00ED00E010B5044638
:10274800836923B9D4F8F00206F056FB10BD044A99
:10275800136923F006031361FFF774FFF2E700BF64
:1027680000ED00E010B504461E48C0F8F042C4F879
:10277800C4021D4B03600823436002238360036186
:10278800002343618361C361036200F010FE30BB24
:10279800182300221146D4F8C40201F042FD582340
:1027A80000228021D4F8C40201F03BFDC02300229E
:1027B8008121D4F8C40201F034FD4FF4887300225B
:1027C8000121D4F8C40201F02CFD4FF480730022DB
:1027D8008221D4F8C40201F024FD002010BDFDF7C9
:1027E800B1FED5E7041F0020005C004008B5D0F812
:1027F800C40200F04EFEFFF71BFF08BD08B5944663
:102808001A466346D0F8C40201F0D4FBFFF710FF64
:1028180008BD08B5D0F8C40201F00EFCFFF708FFA8
:1028280008BD08B5D0F8C40201F08BFCFFF700FF23
:1028380008BD08B5D0F8C40201F0B8FCFFF7F8FEEF
:1028480008BDD0F8C43211F0800F08D101F07F0123
:1028580001EB810103EBC10191F86A01704701F0B6
:102868007F01013101EB810103EBC10188787047D9
:1028780008B5D0F8C40201F0B0FAFFF7D9FE08BDD8
:1028880008B5D0F8C40201F034FCFFF7D1FE08BD4A
:1028980008B5D0F8C40201F001FCFFF7C9FE08BD75
:1028A80008B5D0F8C40201F01BFC08BD10B50446F9
:1028B80011B101290FD010BD836923B9D4F8F002F2
:1028C80006F09AFAF7E7FFF7BDFE094A136923F005
:1028D80006031361F2E7D0F8F00206F083FAA36961
:1028E800002BE8D0024A136943F006031361E2E7BC
:1028F80000ED00E000487047F821002070470346CB
:102908000020D860986018615A685A61704708B505
:1029180001604260FFF7F3FF08BD03694268934214
:1029280015D263B9C360836002688368D1540369B0
:10293800013303614369013B4361002070478368A9
:10294800013383609A42EFD800238360ECE70120CB
:102958007047000008B51D4B4FF400425A601C49EF
:1029680019604FF480421A61D9600122DA61194A6C
:102978009A61022098625A6240201864DA634FF420
:10298800807058631A634FF40052DA649964002324
:1029980008E003EB430291000C4A0A44012111723A
:1029A80051720B44062BF4DD20220B490B48FFF72C
:1029B800AEFF0B4B054A5365DA6842F00102DA6054
:1029C8001A6842F001021A6008BD00BF50240020B6
:1029D800000800480018004830240020182400206F
:1029E8000010004010B5002402E001230FE001347C
:1029F800062C1CDC0E4804EB44039A008318197A51
:102A0800597282585B6812699343EED00023DBB297
:102A180004EB44029000064A024413720129E6D1ED
:102A2800002BE4D1E1B20348FFF777FFDFE710BDE1
:102A3800502400201824002008B5FFF7D3FF08BD54
:102A480000230122072B1BD810B40CE00D4951F8C4
:102A5800334001EBC3014968A1625200D2B201338D
:102A6800DBB2072B09D80242F0D0064951F83340AF
:102A780001EBC3014968A161EFE75DF8044B7047BA
:102A8800704700BFA824002010B50E4B04205860E2
:102A98000D4A1A600821D9609A6010245C611A6195
:102AA8002024DC619A6101225A62084A1A620224CF
:102AB800DC629A6258631A63D9639A630020FFF74D
:102AC800BFFF10BDA82400200014004800080048DB
:102AD80010B5104C104B2360104B186800230222CD
:102AE8001946806806F09AFF4FF4FA720C490D48AF
:102AF800FFF70DFF4FF4FA720B490C48FFF707FF79
:102B0800226852E8003F43F0200342E800310029E0
:102B1800F7D110BDE82400200048004084010020BF
:102B280004250020EC24002010270020F82600208F
:102B3800034B1B68DA6912F0400FF9D098627047AE
:102B4800E824002070B506460D46002403E0305DF9
:102B5800FFF7EEFF0134AC42F9D370BD10B508465B
:102B680014461146FFF7EEFF204610BD02884FF0CD
:102B7800C0431A80BFF34F8F70470000002307E05F
:102B880030F813C0044AA2F800C0BFF34F8F0133D6
:102B98008B42F5D3704700BF00000160002304E0BA
:102BA800034A1080BFF34F8F01338B42F8D370472D
:102BB8000000016010B582B004463623ADF8063037
:102BC800104B33F82030ADF804300DF10600FFF754
:102BD800CDFF012101A8FFF7D1FF44B1032C06D096
:102BE800094BF0221A604FF4A0725A6005E0064BB8
:102BF8004FF4A0721A60F0225A60034B9C6002B036
:102C080010BD00BF10A300080429002030B585B00E
:102C18000C461D462A23ADF80E30C0F30F23ADF83D
:102C28000430C3B2ADF806308318013BC3F30F2359
:102C3800ADF8083012FA80F080B20138C0B2ADF8B1
:102C48000A000DF10E00FFF791FF04210DEB0100C2
:102C5800FFF794FF2B23ADF80E30C4F30F23ADF824
:102C68000430E3B2ADF806306219013AC2F30F221C
:102C7800ADF8082015FA84F4A4B2013CE4B2ADF82A
:102C88000A400DF10E00FFF771FF04210DEB010062
:102C9800FFF774FF2C23ADF80E300DF10E00FFF78F
:102CA80065FF05B030BD000030B585B00446084664
:102CB800FFF780FF314A5368126800210846FFF782
:102CC800A5FF1123ADF80E300DF10E00FFF74EFFF2
:102CD800C82002F065FA1323ADF80E300DF10E008E
:102CE800FFF744FF642002F05BFA3A23ADF80E3098
:102CF800ADF804400DF10E00FFF738FF012101A8DF
:102D0800FFF73CFF642002F04BFAF623ADF80E30D3
:102D18004923ADF804300024ADF806402023ADF86F
:102D280008300DF10E00FFF721FF032101A8FFF77E
:102D380025FF3523ADF80E300125ADF804500DF10F
:102D48000E00FFF713FF294601A8FFF717FF6420BD
:102D580002F026FA4423ADF80E30ADF80440ADF881
:102D680006400DF10E00FFF701FF022101A8FFF751
:102D780005FF642002F014FA05B030BD04290020D4
:102D880008B5322002F00CFA08BD00B583B029233B
:102D9800ADF806300DF10600FFF7E8FE03B05DF868
:102DA80004FB0000032803D8DFE800F004070D0A3D
:102DB80000207047054B18687047044B58687047E7
:102DC800024B986870474FF49630704704290020EA
:102DD80038B5054C0825A562782002F0E1F9A5610F
:102DE800782002F0DDF938BD000C00482DE9F041EB
:102DF80005460E46174698460220FFF7D3FF0446BD
:102E08007B1BA8EB060C0CF1010C03FB0CCC6045FA
:102E180000D3644643463A4631462846FFF7F6FE55
:102E28002146BDF81800FFF7B9FEBDE8F0810000A3
:102E3800012803D0034B40229A627047014B40227D
:102E48009A6170470004004808B5F0234FF4A07257
:102E580000210846FFF7DAFE02490020FFF79EFE30
:102E680008BD00BF312E010008B5FFF7B1FF0321EF
:102E78005520FFF719FFFFF788FFFFF7E5FFFFF77A
:102E88007FFF0120FFF7D4FF08BD0000016042600A
:102E980083600421C1620163053A4263053B836391
:102EA80042628362012380F8603080F86130002339
:102EB80043640365C36443658365C36545F65D4242
:102EC800C2664FF6FF72426683668361C36103621E
:102ED80008E003F10E0200EBC202002151601172FA
:102EE8000133DBB2022BF4D9014B18600120704783
:102EF8001029002000B5074B1B6803F1440C8646D7
:102F0800BEE80F00ACE80F009EE807008CE8070059
:102F18005DF804FB10290020014B1B6858667047B8
:102F280010290020014B1B68986670471029002063
:102F3800022807D8044B1B680E3003EBC000416021
:102F480003230372704700BF1029002002280FD8FE
:102F5800084B1A6800F10E0302EBC3031B7A13F047
:102F6800010F05D00E3002EBC00043F002030372DC
:102F7800704700BF102900200346027A002A00F09B
:102F8800B18010B4006800283FD05A7A012A1DD0B9
:102F9800022A26D062B101209A7A002A35D0022A64
:102FA8003FD0032A48D0012A25D040F002002CE067
:102FB80002F1804202F58232516821EA0000506035
:102FC80019681068014311600020E5E7514A11684B
:102FD80021EA000010601968506801435160002020
:102FE800DAE74C4A116808431060196850680143D1
:102FF80051600020D0E71C68464AD16821EA0401E4
:10300800D16019689468214391605A68002A51D0A8
:10301800597A012931D0022939D0B9B140F00400D8
:1030280020E01C683B4A916821EA04019160196814
:10303800D4682143D160E8E71968364A9468214387
:1030480091601968D4682143D160DEE701F18041BD
:1030580001F582314C6A24EA02024A625A680C6A13
:1030680022430A629A7A2AB3022A26D0032A2FD048
:10307800012A15D040F005001CE026490C6A24EA14
:1030880002020A625A684C6A22434A62EAE7214904
:103098000C6A22430A625A684C6A22434A62E1E790
:1030A8005C681C4AD16A21EA0401D1625B68916AB2
:1030B8000B4393625DF8044B70475C68154A916A4C
:1030C80021EA040191625B68D16A0B43D362F1E79C
:1030D8005968104A946A214391625B68D16A0B432C
:1030E800D362E7E700680B4A116821EA0001116022
:1030F8001868516821EA000151605868116A21EA8C
:10310800000111625968536A23EA010353620020DF
:10311800704700BF00040140F0B40A6892FAA2F2B6
:1031280012B1B2FA82F24EE020224CE08E68856835
:1031380093FAA3F4E4B1B4FA84F464004FF0030CF6
:103148000CFA04F425EA040593FAA3F494B1B4FA4A
:1031580084F4640006FA04F42C4384600D68CE6895
:10316800446824EA050406FB05F52C43446039E06D
:103178002024E2E72024ECE720243BE0202446E05A
:10318800202456E02024A40006FA04F42C43046208
:103198004E68056893FAA3F4002C75D0B4FA84F449
:1031A80064004FF0030C0CFA04F425EA040493FAC3
:1031B800A3F3002B6AD0B3FA83F35B0006FA03F398
:1031C8002343036001320B6833FA02F460D04FF0F6
:1031D800010C0CFA02FC1CEA0303F3D04C68013C16
:1031E800012CA3D90E69C56893FAA3F4002CC3D0A7
:1031F800B4FA84F464004FF0030C0CFA04F425EAE2
:10320800040593FAA3F4002CB8D0B4FA84F464004B
:1032180006FA04F42C43C4604C68022CB8D1FF2B86
:1032280014D84E69056A93FAA3F4002CA8D0B4FA0E
:1032380084F4A4000F2707FA04F425EA040593FA96
:10324800A3F4002C9ED0B4FA84F49CE74F69466A34
:103258001C0A94FAA4F59DB1B5FA85F5AD004FF0B6
:103268000F0C0CFA05F526EA050594FAA4F44CB1FE
:10327800B4FA84F4A40007FA04F42C43446287E700
:103288002025EBE72024F5E7202489E7202394E78D
:103298000020F0BC704738B512F4804F43D0046862
:1032A800B4F8503091F800C04FEACC0E1EFA83F300
:1032B8002344B3F80244C4F309048B69A34228D316
:1032C8001B1B8B618B697BB9056835F82C309BB269
:1032D80023F4804323F0700383F4005343F4004342
:1032E80043F0800325F82C3012F0400F0ED002680E
:1032F8000D7832F825309BB223F4E04323F07003B5
:1033080043F4004343F0C00322F8253024B9204693
:1033180038BD00238B61D5E723460A8949690068CF
:1033280001F0DCFEF3E70468B4F8503091F800C00F
:103338004FEACC0E1EFA83F32344B3F80644C4F3D1
:1033480009048B69A3422FD31B1B8B618B697BB943
:10335800056835F82C309BB223F4804323F07003C2
:1033680083F4005343F4004343F0800325F82C30E2
:1033780012F0400F0FD1026891F800C032F82C30DB
:103388009BB223F4E04323F0700343F4004343F07B
:10339800C00322F82C30002CB9D023464A89496949
:1033A800006801F09BFEB2E700238B61CEE700289E
:1033B8006DD030B587B0044690F8A9323BB10323ED
:1033C80084F8A932206800F067FF00231FE080F826
:1033D800A832FFF73BF9F2E75A1C02EB820104EB33
:1033E800C1010120487002EB820104F8313003EB7F
:1033F800830104EBC101CB8602EB820C04EBCC0CFD
:1034080000208CF803008863C8630864D3B260683E
:103418008342E1D3002316E003EB830204EBC202EC
:10342800002182F8691182F8683182F86B11C2F8BC
:103438007811C2F87C1103EB830204EBC202C2F8D4
:1034480080110133DBB29842E6D8A4465CF8105BE1
:10345800EE46BCE80F00AEE80F00DCF80030CEF80E
:103468000030231D0ECB284600F020FF002384F8EF
:103478002430012384F8A932E369012B02D000200B
:1034880007B030BD204600F0E8FE0020F8E7012034
:10349800704790F8A832012B0ED010B504460123CE
:1034A80080F8A832006800F0EEFE206801F043FAC8
:1034B800002084F8A80210BD0220704770B50546A8
:1034C8000C46164612F0400F00F009810268B2F867
:1034D80050300978C80010FA83F31344B3F8022473
:1034E800C2F30902A369934251D99B1AA361A36944
:1034F800002B68D16378002B4CD12A68B2F8503081
:1035080012FA83F30344B3F8022492B222F4F84285
:1035180092B2A3F80224B3F802246FEA42426FEA97
:10352800524292B2A3F8022429686278002A3DD157
:10353800B1F8503011FA83F3227803EBC203B3F8E1
:10354800062492B222F4F84292B2A3F80624B3F801
:1035580006246FEA42426FEA524292B2A3F8062466
:1035680021782846FFF7B6F816F4804F40D02A682D
:10357800217832F821309BB223F4E04323F0700322
:1035880043F4404343F0800322F8213030E0002325
:10359800A361ACE7012BC7D12A68B2F8503012FA00
:1035A80083F303440022A3F80224BDE7012AD7D1FC
:1035B800B1F8503011FA83F3217803EBC1030022EC
:1035C800A3F80624CCE716F4804F0DD0286830F80D
:1035D80021309BB223F4E04323F0700343F44043CB
:1035E80043F0800320F8213094F82430012B12D0C6
:1035F8002A68217832F821309BB223F4E04323F083
:10360800400383F0300343F4004343F0800322F87F
:103618002130002070BD636913446361E36913447A
:10362800E361216A236999421BD3C91A216262782E
:10363800002A3FD12968B1F8502011FA82F2217886
:1036480002EBC1023E2B18D9590913F01F0F00D104
:1036580001396FEAC1616FEA514189B2A2F80214D7
:103668002AE021B9002384F824301346DFE7002339
:1036780084F8243023620B46D9E78BB9B2F80214D8
:1036880089B221F4F84189B2A2F80214B2F80214FE
:103698006FEA41416FEA514189B2A2F802140BE086
:1036A800590813F0010F00D00131890289B2A2F83C
:1036B800021401E0012A06D09BB2228961692868B8
:1036C80001F048F994E72968B1F8502011FA82F21C
:1036D800217802EBC10299B2A2F80214ECE7026861
:1036E800B2F850300978C80010FA83F31344B3F8DD
:1036F8000624C2F30902A369934252D39B1AA36119
:10370800A369002B69D16378002B4DD12A68B2F8E0
:10371800503012FA83F31844B0F802349BB223F401
:10372800F8439BB2A0F80234B0F802346FEA43437E
:103738006FEA53439BB2A0F8023429686278002AE2
:103748003ED1B1F8503011FA83F3227803EBC2036B
:10375800B3F8062492B222F4F84292B2A3F80624EF
:10376800B3F806246FEA42426FEA524292B2A3F8D3
:10377800062421782846FEF7ADFF16F4804F7FF423
:1037880037AF2A68217832F821309BB223F4E0431E
:1037980023F0700343F4404343F0800322F82130C0
:1037A80026E70023A361ABE7012BC6D12A68B2F84C
:1037B800503012FA83F318440023A0F80234BCE70F
:1037C800012AD6D1B1F8503011FA83F3217803EBEE
:1037D800C1030022A3F80624CBE716F4804F0DD1CD
:1037E800286830F821309BB223F4E04323F07003BB
:1037F80043F4404343F0800320F8213094F8243008
:10380800012B7FF4F5AE636913446361E3691344E4
:10381800E361216A236999421BD3C91A2162296885
:103828006278002A3ED1B1F8502011FA82F221784C
:1038380002EBC1023E2B18D9590913F01F0F00D112
:1038480001396FEAC1616FEA514189B2A2F80614E1
:103858002AE021B9002384F824301346DFE7002347
:10386800236284F824300B46D9E78BB9B2F80614E2
:1038780089B221F4F84189B2A2F80614B2F8061404
:103888006FEA41416FEA514189B2A2F806140BE090
:10389800590813F0010F00D00131890289B2A2F84A
:1038A800061401E0012A06D09BB262896169286882
:1038B80001F050F89CE6B1F8502011FA82F2217814
:1038C80002EBC10299B2A2F80614EDE72DE9F04126
:1038D8000546CAE003889BB223F4E14323F0700352
:1038E8006FEA43436FEA53439BB203802968B1F8F8
:1038F800503095F82820D20012FA83F30B44B3F81D
:103908000234C3F309036B64EA6B1344EB630021CD
:103918002846FEF7DFFE95F82430002B00F0A5803E
:103928002B6C002B40F0A18095F824302A6843F0D6
:103938008003A2F84C30002385F8243095E0B0F8D5
:10394800503095F86821D20012FA83F30344B3F893
:103958000634C3F30903C5F88431B5F86E2105F5BB
:103968002C7101F0BBFB2A68138823F070031B0538
:103978001B0D43F0800313802846FEF797FE74E082
:1039880089B9B3F8062492B222F4F84292B2A3F8A5
:103998000624B3F806246FEA42426FEA524292B212
:1039A800A3F80624BFE04A0811F0010F00D0013245
:1039B800920292B2A3F80624B5E030F824309EB201
:1039C80013F4004F40F0BE8016F0800F4DD0621CFB
:1039D80002EB820105EBC101286830F824309BB264
:1039E80023F4E14323F070036FEA43436FEA534340
:1039F8009BB220F82430CB78022B00F0A78104EB8F
:103A0800840305EBC30300221A6493F8343023B30C
:103A180016F0400F00F063814B78002B40F04C818A
:103A28002A68B2F8503012FA83F3621C02EB820261
:103A380015F8322003EBC203B3F8022492B222F441
:103A4800F84292B2A3F80224B3F802246FEA424281
:103A58006FEA524292B2A3F80224013404EB8404C0
:103A680015F834102846FEF735FE2868B0F84430BB
:103A780013F4004F00F0AE81B0F84440A3B214F044
:103A88000F049AD113F0100F3FF424AF03889AB2B1
:103A980013F4006F7FF453AF12F4004FE5D003889E
:103AA80023F070031B051B0D43F080030380286877
:103AB800B0F8503095F86821D20012FA83F3034425
:103AC800B3F80634C3F30903C5F884318BB1D5F8CC
:103AD8007C1171B1B5F86E2101F000FBD5F8842195
:103AE800D5F87C311344C5F87C3100212846FEF70F
:103AF800E5FD2B681A8812F4006FB6D1B3F8502090
:103B080013FA82F3D5F878113E297FF639AF4A09BE
:103B180011F01F0F00D1013A6FEAC2626FEA5242F8
:103B280092B2A3F806242A6813889BB223F4804330
:103B380023F0700383F4405343F4004343F08003BD
:103B4800138092E730F8243023F070031B051B0D17
:103B580043F0800320F8243004EB8401C90001F508
:103B6800B47105EB010804EB840305EBC30393F878
:103B78007431002B40D12868B0F8503004EB84022F
:103B880005EBC20292F86821D20012FA83F30344CB
:103B9800B3F80674C7F3090717BB04EB840305EBF6
:103BA800C303D3F884213A44C3F88421D3F87C2191
:103BB8003A44C3F87C21D3F880313BB104EB840349
:103BC80005EBC303D3F878319F4270D204EB84032A
:103BD80005EBC30393F868112846FEF76FFDF3E67B
:103BE80004EB840105EBC1013B46B1F86E21D1F825
:103BF8007C1101F073FAD0E704EB840305EBC303EF
:103C080093F86B31022B33D0296804EB840205EB5F
:103C1800C20292F8680131F820309BB223F4E043E5
:103C280023F0700343F4004343F0C00321F820302D
:103C3800286892F8683130F8232012F4804F1ED09B
:103C4800B0F85020DB0013FA82F30344B3F802748F
:103C5800C7F30907002FA0D004EB840105EBC101CD
:103C68003B46B1F87021D1F87C1101F037FA94E79E
:103C7800324641462846FFF70EFB07468DE7B0F867
:103C88005020DB0013FA82F30344B3F80674C7F339
:103C98000907002F81D004EB840105EBC1013B46E5
:103CA800B1F87221D1F87C1101F018FA75E7414694
:103CB800286800F063FE87E6012B7FF4CEAE2A6801
:103CC800B2F8503012FA83F3621C02EB820215F844
:103CD800322003EBC2030022A3F80224BDE62968C0
:103CE800631C03EB830305EBC3035A78E2B9B1F80D
:103CF800503011FA83F3621C02EB820215F832206D
:103D080003EBC203B3F8062492B222F4F84292B24B
:103D1800A3F80624B3F806246FEA42426FEA524237
:103D280092B2A3F8062498E6012A7FF496AEB1F879
:103D3800503011FA83F3621C02EB820215F832202C
:103D480003EBC2030022A3F8062486E616F4807F5C
:103D58003BD12868B0F85030621C02EB820215F89B
:103D68003260F20012FA83F30344B3F80234C3F367
:103D7800090304EB840205EBC202126C9A4210D9C3
:103D880004EB840705EBC707D21A3A6404EB8402F4
:103D980005EBC202126C5AB931462846FEF79AFC66
:103DA80063E604EB840205EBC20200271764EDE723
:103DB80004EB840205EBC202D66B1E44D663546C36
:103DC8002344536400F0DAFD4FE632462846FFF7F5
:103DD80075FB4AE60020BDE8F08190F8A832012B77
:103DE8000DD010B50446012380F8A83280F82410BD
:103DF800006800F09AFD002084F8A80210BD022097
:103E0800704710B50446006800F0A0FD10F4004F9C
:103E180023D110F4806F24D110F4804F32D110F4E4
:103E2800005F39D110F4805F40D110F4006F67D182
:103E380010F0800F40F0818010F4007F40F0AD80DA
:103E480010F4807F27D02268B2F844309BB223F464
:103E580080739BB2A2F844301DE02046FFF736FD80
:103E680019E02268B2F844309BB223F480639BB215
:103E7800A2F844302046FEF73EFC00212046FFF71A
:103E8800ACFF08E02268B2F844309BB223F48043C8
:103E98009BB2A2F8443010BD2268B2F844309BB2FD
:103EA80023F400539BB2A2F84430F4E72268B2F836
:103EB80040309BB223F004039BB2A2F84030226842
:103EC800B2F840309BB223F008039BB2A2F840300E
:103ED80094F8E032012B0CD02046FEF72FFC226824
:103EE800B2F844309BB223F480539BB2A2F844301A
:103EF800D1E7002184F8E0122046FEF7D7FCEBE773
:103F08002268B2F840309BB243F00803A2F8403070
:103F18002268B2F844309BB223F400639BB2A2F843
:103F280044302268B2F840309BB243F00403A2F850
:103F380040302046FEF7F2FBADE72268B2F8443085
:103F48009BB223F080039BB2A2F8443094F8E0328D
:103F5800FBB92268B2F840309BB243F00403A2F8E0
:103F680040302268B2F840309BB243F00803A2F810
:103F78004030012184F8E0122368B3F85430C3F3C9
:103F88008D0303F03C03C4F8E4322046FEF78EFCB0
:103F980081E72046FEF7C2FB7DE72268B2F844308D
:103FA8009BB223F400739BB2A2F844302046FEF77C
:103FB8009CFB70E710B504468C4611F0800F2AD19F
:103FC80001F0070000EB8001C90001F5B47E04EBA5
:103FD8000E0100EB800004EBC0004FF0000E80F8EB
:103FE80069E10CF0070C81F800C00A61CB704A78CF
:103FF8000AB1A1F80EC0022B19D094F8A832012BEF
:1040080018D0012384F8A832206800F060F9002055
:1040180084F8A80210BD01F00700013000EB800110
:1040280004EBC1014FF0010E81F801E0D9E700234C
:104038000B71E2E70220EDE710B504460B4611F0DC
:10404800800F1FD101F0070202EB8201C90001F5C0
:10405800B471014402EB820200EBC202002082F834
:10406800690103F007030B7094F8A832012B13D0F1
:10407800012384F8A832206800F0F6FA002084F8BA
:10408800A80210BD01F00702013202EB820100EB29
:10409800C10101204870E4E70220F2E710B501F001
:1040A800070404EB8401C90001F5B471014404EB71
:1040B800840C00EBCC0CCCF87C21CCF880310023AC
:1040C800CCF884318CF869318CF8684124B90068DF
:1040D80000F054FC002010BD006800F04FFCF9E728
:1040E80001F0070101EB810100EBC101D1F8840166
:1040F800704710B501F0070404F1010C0CEB8C01BA
:1041080000EBC10104EB840E00EBCE0ECEF83C2090
:10411800CEF8403001228EF84C20CEF848300023EB
:10412800CEF844304A700CEB8C0C00F83C4024B9B3
:10413800006800F023FC002010BD006800F01EFCA1
:10414800F9E70B4601F0070241688A422AD810B500
:10415800044613F0800F1DD103EB8301C90001F55C
:10416800B471014403EB830300EBC303002083F81D
:10417800690101238B700A7094F8A832012B13D0BF
:10418800012384F8A832206800F059FB002084F845
:10419800A80210BD531C03EB830100EBC1010120F1
:1041A8004870E6E7012070470220F2E70B4601F06D
:1041B8000F014268914230D810B5044613F0800FC1
:1041C80021D103F0070202EB8201C90001F5B471A5
:1041D800014402EB820200EBC202002082F869016E
:1041E80000228A7003F007030B7094F8A832012BA1
:1041F80015D0012384F8A832206800F045FB002080
:1042080084F8A80210BD03F00702013202EB820114
:1042180000EBC10101204870E2E70120704702204D
:10422800F0E711F0800F0BD001F00701013101EB2D
:10423800810100EBC10152B90A73CB80002070479D
:1042480001EB8101C90001F5B4710144F3E70122D2
:104258000A730B811B0C4B81F0E7034602680121AE
:10426800C0F8E812002083F8E002B2F854309BB29C
:104278000B43A2F85430B2F854309BB243F0020317
:10428800A2F85430704703460020A3F844004BF6C8
:104298008072A3F840207047B0F8403023F47E5372
:1042A8005B045B0CA0F840300020704784B0844663
:1042B80001A880E80E000123ACF840300020ACF8DB
:1042C8004000ACF84400ACF8500004B0704710B59A
:1042D80003460A7830F822C01FFA8CFC2CF4EC4C08
:1042E8002CF0700C1FFA8CFCC878032862D8DFE821
:1042F80000F0565D0259002048F2800E4CEA0E0C80
:1043080023F822C091F800C033F82C2012B222F40E
:10431800E04222F070024CEA020292B242EA0E0235
:1043280023F82C200A7B002A40F0C2804A78002A11
:1043380051D0B3F8502013FA82F20C7802EBC40281
:10434800B1F806C04FEA5C0C4FEA4C0CA2F800C466
:104358000C7833F8242012F0400F0CD033F82420C6
:1043680092B222F4E04222F0700242F4004242F09B
:10437800C00223F82420CA78012A1DD0097833F80E
:10438800212092B222F4E04222F0400282F0200280
:1043980042F4004242F0800223F8212066E04CF407
:1043A800007CA9E74CF4C06C0020A5E74CF4806CB5
:1043B8000020A1E701209FE7097833F8212092B275
:1043C80022F4E04222F0400242F4004242F080022D
:1043D80023F821204AE0B3F8502013FA82F20C782F
:1043E80002EBC402B1F806C04FEA5C0C4FEA4C0C71
:1043F800A2F804C4B3F8502013FA82F20C7802EB46
:10440800C4020C693E2C32D94FEA541C14F01F0F19
:1044180001D10CF1FF3C6FEACC6C6FEA5C4C1FFADF
:104428008CFCA2F806C40C7833F8242012F4804FD0
:104438000CD033F8242092B222F4E04222F0700229
:1044480042F4404242F0800223F82420097833F8ED
:10445800212092B222F4804222F0700282F440526B
:1044680042F4004242F0800223F8212010BD8CB9AA
:10447800B2F80644A4B224F4F844A4B2A2F806445C
:10448800B2F806446FEA44446FEA5444A4B2A2F86E
:104498000644C8E74FEA540C14F0010F01D00CF1A0
:1044A800010C4FEA8C2C1FFA8CFCA2F806C4BAE760
:1044B800CA78022A72D00C7833F8242092B222F4F7
:1044C800E24222F0700242F4004242F0800223F8F5
:1044D8002420B3F8502013FA82F291F800C002EBBE
:1044E800CC02B1F808C04FEA5C0C4FEA4C0CA2F8B9
:1044F80000C4B3F8502013FA82F291F800C002EB1E
:10450800CC02B1F80AC04FEA5C0C4FEA4C0CA2F896
:1045180004C44A78002A50D10C7833F8242012F4C5
:10452800804F0CD033F8242092B222F4E04222F0DB
:10453800700242F4404242F0800223F824200C78B2
:1045480033F8242012F0400F0CD033F8242092B214
:1045580022F4E04222F0700242F4004242F0C0022B
:1045680023F8242091F800C033F82C2092B222F4CA
:10457800804222F0700282F4405248F280042243C2
:1045880023F82C20097833F8212092B222F4E04253
:1045980022F04002224323F8212067E70C7833F801
:1045A800242092B222F4E04222F0700242F4014246
:1045B80042F0800223F824208BE70C7833F824207B
:1045C80012F4804F0CD033F8242092B222F4E04247
:1045D80022F0700242F4404242F0800223F8242084
:1045E8000C7833F8242012F0400F0CD033F8242034
:1045F80092B222F4E04222F0700242F4004242F009
:10460800C00223F82420CA78012A1ED00C7833F877
:10461800242092B222F4E04222F0400282F02002EA
:1046280042F4004242F0800223F82420097833F84B
:10463800212092B222F4804222F0700242F4004219
:1046480042F0800223F8212010E70C7833F8242068
:1046580092B222F4E04222F0400242F4004242F0D8
:10466800800223F82420E1E70B7B002B46D14B780E
:1046780013B30A7830F8223013F0400F0CD030F81A
:1046880022309BB223F4E04323F0700343F4004349
:1046980043F0C00320F822300A7830F822309BB269
:1046A80023F4E04323F0400343F4004343F0800342
:1046B80020F82230002070470A7830F8223013F4AE
:1046C800804F0CD030F822309BB223F4E04323F023
:1046D800700343F4404343F0800320F822300A7803
:1046E80030F822309BB223F4804323F0700343F464
:1046F800004343F0800320F82230DBE74B78002B9F
:104708004ED10A7830F8223013F4804F0CD030F8AC
:1047180022309BB223F4E04323F0700343F4404378
:1047280043F0800320F822300A7830F8223013F062
:10473800400F0CD030F822309BB223F4E04323F032
:10474800700343F4004343F0C00320F822300A7892
:1047580030F822309BB223F4E04323F0700343F493
:10476800004343F0C00320F822300B7830F82320B0
:1047780092B222F4804222F0700248F2800C42EA9F
:104788000C0220F823200A7830F822309BB223F458
:10479800E04323F0400343EA0C0320F8223089E782
:1047A8000A7830F8223013F4804F0CD030F82230D9
:1047B8009BB223F4E04323F0700343F4404343F0F7
:1047C800800320F822300A7830F8223013F0400FA6
:1047D8000CD030F822309BB223F4E04323F070036E
:1047E80043F4004343F0C00320F822300A7830F83D
:1047F80022309BB223F4E04323F0700343F4404398
:1048080043F0800320F822300B7830F8232092B24E
:1048180022F4E04222F0400248F2800C42EA0C0204
:1048280020F823200A7830F822309BB223F4804302
:1048380023F0700343EA0C0320F822303AE74B7860
:104848008BB10A7830F822309BB223F4E04323F08E
:10485800400383F0100343F4004343F0800320F83F
:104868002230002070470A7830F822309BB223F4B7
:10487800804323F0700383F4805343F4004343F0F0
:10488800800320F82230ECE70B7B002B4BD14B78D0
:1048980033B30A7830F8223013F0400F0CD030F8D8
:1048A80022309BB223F4E04323F0700343F4004327
:1048B80043F0C00320F82230CB78012B33D00A789C
:1048C80030F822309BB223F4E04323F0400383F016
:1048D800200343F4004343F0800320F8223022E011
:1048E8000A7830F8223013F4804F0CD030F8223098
:1048F8009BB223F4E04323F0700343F4404343F0B6
:10490800800320F822300A7830F822309BB223F452
:10491800804323F0700383F4405343F4004343F08F
:10492800800320F822300020704711B98023A0F8B6
:104938004C3000207047B0F858306FEA43436FEAB4
:1049480053439BB2A0F8583000207047B0F8440099
:1049580080B2704710B45C1C6408024402F580629F
:1049680007E00B78487843EA002322F8023B02313B
:10497800013C002CF5D15DF8044B704770B5054635
:104988000C464A78012A32D00B7B002B40F08382F8
:104998008B690A69934240F25D829B1A8B61B5F874
:1049A800503015FA83F3217803EBC1033E2A40F215
:1049B8005582510912F01F0F00D101396FEAC16108
:1049C8006FEA514189B2A3F80614227835F82230EB
:1049D8009BB223F4804323F0700383F4405343F4E1
:1049E800004343F0800325F82230002070BD8E6913
:1049F80009698E4200D90E46237B2BB3E378022B3C
:104A080044D0236A9B1B2362237835F8231011F0C6
:104A1800400F00F0DC81002A40F0C981B5F8502031
:104A280015FA82F202EBC3033E2E40F2A38172090B
:104A380016F01F0F00D1013A6FEAC2626FEA5242C4
:104A480092B2A3F80624BBE1B6B23346E2886169A4
:104A58002846FFF77FFFB5F8503015FA83F3227820
:104A680003EBC203A3F80264227835F822309BB224
:104A780023F4E04323F0400383F0300343F400437E
:104A880043F0800325F822300020AFE7236A9942DB
:104A980080F05281227835F822309BB223F4E0432B
:104AA80023F0700343F4014343F0800325F82230D8
:104AB800236A9B1B2362237835F8232012F0400FCA
:104AC80000F09D8062788ABBB5F8502015FA82F212
:104AD80002EBC3033E2E0CD9720916F01F0F00D14A
:104AE800013A6FEAC2626FEA524292B2A3F8062410
:104AF8001EE08EB9B3F8062492B222F4F84292B2BC
:104B0800A3F80624B3F806246FEA42426FEA524239
:104B180092B2A3F806240BE0720816F0010F00D039
:104B28000132920292B2A3F8062401E0012A27D0AA
:104B3800B3B2628961692846FFF70CFF63693344A1
:104B48006361236A2269934224D99B1B2362637899
:104B5800002B40D1B5F8503015FA83F3227803EBD7
:104B6800C2033E2E1AD9720916F01F0F00D1013A5E
:104B78006FEAC2626FEA524292B2A3F802242CE0B2
:104B8800B5F8502015FA82F202EBC303B2B2A3F8CB
:104B98000624CDE7002222621E46D8E78EB9B3F874
:104BA800022492B222F4F84292B2A3F80224B3F893
:104BB80002246FEA42426FEA524292B2A3F80224F8
:104BC8000BE0720816F0010F00D00132920292B287
:104BD800A3F8022401E0012B06D0B3B2228961694F
:104BE8002846FFF7B7FE3FE7B5F8503015FA83F3CC
:104BF800227803EBC203B2B2A3F80224EDE762788D
:104C08008ABBB5F8502015FA82F202EBC3033E2E98
:104C18000CD9720916F01F0F00D1013A6FEAC2626F
:104C28006FEA524292B2A3F802241EE08EB9B3F89A
:104C3800022492B222F4F84292B2A3F80224B3F802
:104C480002246FEA42426FEA524292B2A3F8022467
:104C58000BE0720816F0010F00D00132920292B2F6
:104C6800A3F8022401E0012A27D0B3B2228961699E
:104C78002846FFF76FFE636933446361236A22693C
:104C8800934224D99B1B23626378002B40D1B5F84B
:104C9800503015FA83F3227803EBC2033E2E1AD95B
:104CA800720916F01F0F00D1013A6FEAC2626FEA6B
:104CB800524292B2A3F806242CE0B5F8502015FA17
:104CC80082F202EBC303B2B2A3F80224CDE70022BA
:104CD80022621E46D8E78EB9B3F8062492B222F4AF
:104CE800F84292B2A3F80624B3F806246FEA4242C7
:104CF8006FEA524292B2A3F806240BE0720816F04B
:104D0800010F00D00132920292B2A3F8062401E00A
:104D1800012B06D0B3B2628961692846FFF71AFEF3
:104D2800A2E6B5F8503015FA83F3227803EBC203F4
:104D3800B2B2A3F80624EDE7217835F8212092B223
:104D480022F4E24222F0700242F4004242F0800271
:104D580025F82120B5F8502015FA82F2217802EBC7
:104D6800C1029BB2A2F80234228961692846FFF782
:104D7800F1FD79E68EB9B3F8062492B222F4F8422E
:104D880092B2A3F80624B3F806246FEA42426FEA07
:104D9800524292B2A3F8062412E0720816F0010FEC
:104DA80000D00132920292B2A3F8062408E0B5F8C6
:104DB800502015FA82F202EBC303B2B2A3F806241C
:104DC800B3B2628961692846FFF7C4FD4CE68ABB25
:104DD800B5F8502015FA82F202EBC3033E2E0CD927
:104DE800720916F01F0F00D1013A6FEAC2626FEA2A
:104DF800524292B2A3F8022425E08EB9B3F80224F5
:104E080092B222F4F84292B2A3F80224B3F8022430
:104E18006FEA42426FEA524292B2A3F8022412E0C9
:104E2800720816F0010F00D00132920292B2A3F874
:104E3800022408E0B5F8502015FA82F202EBC30309
:104E4800B2B2A3F80224B3B2228961692846FFF7F7
:104E580081FD09E600228A611A46A0E58AB9B3F8FD
:104E6800062492B222F4F84292B2A3F80624B3F8C8
:104E780006246FEA42426FEA524292B2A3F806242D
:104E8800A3E5510812F0010F00D00131890289B25F
:104E9800A3F8061499E5CB78022B3BD0012B40F000
:104EA8001B8189692369994240F2CA80C91AA161A4
:104EB800AAB9B5F8502015FA82F2217802EBC1029E
:104EC8003E2B40F2C180590913F01F0F00D1013960
:104ED8006FEAC1616FEA514189B2A2F8021462789F
:104EE800002A40F0EB80B5F8502015FA82F22178BC
:104EF80002EBC1023E2B40F2C480590913F01F0F88
:104F080000D101396FEAC1636FEA53439BB2A2F83B
:104F180006345AE5AAB9B0F8503010FA83F30A7883
:104F280003EBC20309693E2925D94A0911F01F0F6D
:104F380000D1013A6FEAC2626FEA524292B2A3F814
:104F480002246378002B50D1B5F8503015FA83F35A
:104F5800227803EBC20321693E2929D94A0911F0B5
:104F68001F0F00D1013A6FEAC2626FEA524292B251
:104F7800A3F806243BE089B9B3F8022492B222F4DC
:104F8800F84292B2A3F80224B3F802246FEA42422C
:104F98006FEA524292B2A3F80224D2E74A0811F00B
:104FA800010F00D00132920292B2A3F80224C8E79E
:104FB80089B9B3F8062492B222F4F84292B2A3F85F
:104FC8000624B3F806246FEA42426FEA524292B2CC
:104FD800A3F806240BE04A0811F0010F00D00132B3
:104FE800920292B2A3F8062401E0012B1DD0E369D6
:104FF800002B3FF4EAAC227835F8221044F2400343
:1050080003EA01008B4302D000287FF4DEAC35F8B8
:1050180022309BB223F4E04323F0700343F40043AF
:1050280043F0C00325F82230CFE4B5F8503015FA24
:1050380083F3227803EBC203228AA3F80624D6E777
:105048000023A3610B4633E78BB9B2F8021489B287
:1050580021F4F84189B2A2F80214B2F802146FEAF6
:1050680041416FEA514189B2A2F8021437E7590861
:1050780013F0010F00D00131890289B2A2F802149D
:105088002DE78BB9B2F806349BB223F4F8439BB2F0
:10509800A2F80634B2F806346FEA43436FEA534382
:1050A8009BB2A2F8063490E4590813F0010F00D01F
:1050B80001318B029BB2A2F8063486E4012A7FF400
:1050C80084ACB5F8502015FA82F2217802EBC102BF
:1050D8009BB2A2F8063478E4012087E410B45C0897
:1050E800104400F5806007E030F8022B0A70C2F324
:1050F80007224A700231013C002CF5D113F0010F50
:1051080001D003880B705DF8044B7047104B1B6887
:105118000BB90120704710B504464FF47A70B0FB04
:10512800F3F30C4A1068B0FBF3F000F0E3FF68B942
:105138000F2C01D901200AE0002221464FF0FF3050
:1051480000F092FF044B1C60002000E0012010BD1D
:1051580068000020700000206C00002010B50320BB
:1051680000F070FF0020FFF7D1FF10B101242046A6
:1051780010BD0446FDF754F9F9E70000034A136827
:10518800034909680B441360704700BF14290020C5
:1051980068000020014B1868704700BF14290020E0
:1051A80038B50446FFF7F6FF0546B4F1FF3F02D0D5
:1051B800044B1B681C44FFF7EDFF401BA042FAD3C9
:1051C80038BD00BF68000020124BDA6802F0030205
:1051D800D868C0F30310431C032A11D00E48B0FB53
:1051E800F3F00C4BDB68C3F3062303FB00F0094B19
:1051F800DB68C3F3416301335B00B0FBF3F0704736
:105208000648B0FBF3F0034BDB68C3F3062303FB4C
:1052180000F0ECE7001002400024F40000127A00CD
:10522800002800F0548270B582B00446036813F079
:10523800010F37D0A44A936803F00C03D26802F038
:1052480003020C2B23D0082B23D06368B3F5803FCF
:105258004ED0B3F5A02F51D09B4B1A6822F4803260
:105268001A601A6822F480221A606368002B52D0F0
:10527800FFF790FF0546944B1B6813F4003F11D1CC
:10528800FFF788FF401B6428F5D9032028E2032A8A
:10529800D9D18D4B1B6813F4003F03D06368002BF2
:1052A80000F01782236813F0020F5DD0864A9368D6
:1052B80003F00C03D26802F003020C2B3AD0042B43
:1052C8003AD0E368002B75D07F4A136843F48073A3
:1052D8001360FFF75FFF05467B4B1B6813F4806F75
:1052E8005FD1FFF757FF401B0228F5D90320F7E1EC
:1052F800754A136843F480331360B6E703F18043BB
:10530800A3F53C331A6842F480221A601A6842F402
:1053180080321A60A9E7FFF73DFF05466A4B1B6814
:1053280013F4003FBED0FFF735FF401B6428F5D9C2
:105338000320D5E1022AC2D1634B1B6813F4806FA6
:1053480003D0E368002B00F0C6815F4A536823F05E
:10535800FE43216943EA016353605C4B1868FFF719
:10536800D5FE002840F0B981236813F0080F4CD00F
:1053780063699BB3544AD2F8943043F00103C2F8EE
:105388009430FFF707FF05464F4BD3F8943013F0DE
:10539800020F3AD1FFF7FEFE401B0228F4D9032082
:1053A8009EE1494A536823F0FE43216943EA0163B9
:1053B8005360D9E7444A136823F480731360FFF7F6
:1053C800E9FE0546404B1B6813F4806FCCD0FFF70D
:1053D800E1FE401B0228F5D9032081E13A4AD2F8C0
:1053E800943023F00103C2F89430FFF7D3FE05464A
:1053F800354BD3F8943013F0020F06D0FFF7CAFEEE
:10540800401B0228F4D903206AE1236813F0040F33
:1054180000F081802C4B9B6D13F0805F36D12A4BB6
:105428009A6D42F080529A659B6D03F08053019308
:10543800019B0125264B1B6813F4807F28D0A368A5
:10544800012B39D0052B45D01F4BD3F8902022F0E3
:105458000102C3F89020D3F8902022F00402C3F888
:105468009020A368002B43D0FFF794FE0646164B06
:10547800D3F8903013F0020F4CD1FFF78BFE801B4E
:1054880041F288339842F2D9032029E10025D1E777
:105498000F4A136843F480731360FFF77BFE0646D8
:1054A8000B4B1B6813F4807FC9D1FFF773FE801B79
:1054B8000228F5D9032013E1034AD2F8903043F0CB
:1054C8000103C2F89030CCE7001002406C000020C5
:1054D800007000408A4BD3F8902042F00402C3F8D1
:1054E8009020D3F8902042F00102C3F89020B8E74A
:1054F800FFF750FE0646824BD3F8903013F0020FA8
:1055080008D0FFF747FE801B41F288339842F2D952
:105518000320E5E0E5B9236813F0200F35D0A3692F
:10552800E3B1774AD2F8983043F00103C2F89830D3
:10553800FFF730FE0546724BD3F8983013F0020F90
:1055480023D1FFF727FE401B0228F4D90320C7E028
:105558006B4A936D23F080539365DCE7684AD2F871
:10556800983023F00103C2F89830FFF713FE054680
:10557800634BD3F8983013F0020F06D0FFF70AFEFA
:10558800401B0228F4D90320AAE0E369002B00F0AD
:10559800A6805B4A926802F00C020C2A69D0022BA2
:1055A8001DD0574B1A6822F080721A60DA6822F010
:1055B8000302DA60DA6822F0887222F48032DA6054
:1055C800FFF7E8FD04464E4B1B6813F0007F4ED0F2
:1055D800FFF7E0FD001B0228F5D9032080E0484AC8
:1055E800136823F080731360FFF7D4FD0546444B1E
:1055F8001B6813F0007F06D0FFF7CCFD401B022884
:10560800F5D903206CE03E4AD3683E491940236A25
:10561800606A013843EA0013A06A43EA0023206B5A
:105628004008013843EA4053606B4008013843EAB8
:105638004063E06A43EAC0630B43D360136843F0F6
:1056480080731360D36843F08073D360FFF7A2FDC3
:1056580004462B4B1B6813F0007F06D1FFF79AFD19
:10566800001B0228F5D903203AE0002038E000208A
:1056780036E0012B36D0224BDB6803F00301226AA7
:10568800914231D103F0F002616A0139B2EB011F96
:105698002CD103F4FE42A16AB2EB012F28D103F00A
:1056A8007842E16AB2EBC16F24D103F4C001226BE6
:1056B8005208013AB1EB425F1ED103F0C063626B3E
:1056C8005208013AB3EB426F18D1002008E00120DC
:1056D8007047012004E0012002E0012000E00020E2
:1056E80002B070BD0120FBE70120F9E70120F7E7D0
:1056F8000120F5E70120F3E70120F1E70120EFE7BA
:10570800001002400C809F011E4B9B6803F00C03A5
:10571800042B33D01B4B9B6803F00C03082B2FD0B2
:10572800184B9B6803F00C030C2B01D0002070472A
:10573800144BDA6802F00302D868C0F30310431C64
:10574800032A11D01048B0FBF3F00E4BDB68C3F30B
:10575800062303FB00F00B4BDB68C3F34163013303
:105768005B00B0FBF3F070470848B0FBF3F0054B63
:10577800DB68C3F3062303FB00F0ECE7024870473D
:1057880002487047001002400024F40000127A001A
:10579800002800F0E680F8B50C460546744B1B68F7
:1057A80003F00F038B420BD2714A136823F00F03E7
:1057B8000B431360136803F00F038B4240F0D38050
:1057C8002E6816F001065FD06B68032B2FD0022BD2
:1057D8004DD0684B1B6813F4806F00F0C680FFF74C
:1057E80093FF654B98424DD9624A936823F0F003C2
:1057F80043F08003936080265E4A936823F0030396
:1058080069680B439360FFF7C5FC0746594B9B68D3
:1058180003F00C036A68B3EB820F35D0FFF7BAFCCC
:10582800C01B41F288339842F0D9032078E0514BED
:105838001B6813F0007F01D1012071E0FFF7C4FC61
:105848004D4B98421AD94B4B9B6813F0F00F05D07B
:105858002E6816F00206CFD0AB688BB9454A93681C
:1058680023F0F00343F0800393608026C4E7414BA4
:105878001B6813F4003FB2D1012051E00026BBE7BA
:105888000026B9E70026B7E72B6813F0020F48D0C7
:1058980013F0040F04D0374A936843F4E06393602D
:1058A8002B6813F0080F06D0324A936823F47C5310
:1058B80043F4E06393602F4A936823F0F003A968E8
:1058C8000B4393602A4B1B6803F00F03A34230D8A5
:1058D8002B6813F0040F06D0264A936823F4E0637C
:1058E800E9680B4393602B6813F0080F07D0214A2F
:1058F800936823F46053296943EAC1039360FFF76F
:1059080003FF1C4B9B68C3F303131C4AD35C03F0CF
:105918001F03D8401A4B18601A4B1868FFF7F6FB9C
:10592800F8BD802ECED1134A936823F0F00393601C
:10593800C8E70F4A136823F00F0323431360FFF7E8
:1059480029FC06460A4B1B6803F00F03A342BFD08D
:10595800FFF720FC801B41F288339842F2D90320DC
:10596800DEE7012070470120DAE70120D8E700BF11
:10597800002002400010024000B4C40494AF0008A4
:10598800700000206C000020014B1868704700BFB1
:105998007000002008B5FFF7F7FF054B9B68C3F3BD
:1059A8000223044AD35C03F01F03D84008BD00BF9C
:1059B80000100240A4AF000808B5FFF7E5FF054B4B
:1059C8009B68C3F3C223044AD35C03F01F03D84087
:1059D80008BD00BF00100240A4AF0008F0B583B0B6
:1059E8000446036813F4002F6ED0354B9B6D13F0FB
:1059F800805F1ED1324B9A6D42F080529A659B6D42
:105A080003F080530193019B01262E4A136843F447
:105A180080731360FFF7BEFB05462A4B1B6813F41F
:105A2800807F08D1FFF7B6FB401B0228F5D9032574
:105A380002E00026E9E7002545BB214BD3F890306A
:105A480013F4407315D0226D9A4212D01C4AD2F832
:105A5800903023F44073D2F8901041F48031C2F8AA
:105A68009010D2F8901021F48031C2F89010C2F84A
:105A7800903013F0010F10D145B9114AD2F8903087
:105A880023F44073216D0B43C2F89030EEB10C4AF9
:105A9800936D23F08053936517E0FFF77BFB074670
:105AA800074BD3F8903013F0020FE5D1FFF772FBE4
:105AB800C01B41F288339842F2D90325DCE700BFC6
:105AC80000100240007000400025236813F0010F09
